:03000000020900F2
:0C090000787FE4F6D8FD75810C02080039
:0A090C004C59434F20534F4654004E
:06084600D2937F057E0045
:10084C00E4FDFCC3ED9FEE6480F8EC6480985015D9
:10085C00E4FBFA0BBB00010AEB64734A70F50DBDA7
:05086C0000010C80DE1C
:010871002264
:10089700A907E954F0F590C292120846C293E9C439
:0E08A70054F0F590C292D29312084CC29322E4
:1008B500A907E954F0F590D292120846C293E9C40B
:0E08C50054F0F590D292D29312084CC29322B6
:100872008B088A09890AAB08AA09A90A1208D36057
:1008820013050AE50A7002050914F91208D3FF12CA
:0508920008B580E22220
:1008EC007F021208977F281208977F061208977FBD
:0408FC000C0208974B
:10080000D2901208EC7F801208977BFF7A09790C4E
:100810001208727FC0120897E50C2430FF1208B549
:100820007FF47E0112084C309008050CE50C700234
:10083000050BD3E50C9409E50B6480948040D4E467
:06084000F50BF50C80CD64
:1008D300BB010689828A83E0225002E722BBFE0223
:0908E300E32289828A83E4932256
:00000001FF
